:020000040800F2
:1000000000500020DD170008ED160008F316000868
:10001000F9160008FF160008051700080000000088
:100020000000000000000000000000000B170008A6
:100030001717000800000000231700082F170008FA
:10004000251800082518000825180008251800089C
:10005000251800082518000825180008251800088C
:100060002518000825180008251800083D17000865
:10007000251800082518000825180008251800086C
:10008000251800082518000825180008251800085C
:10009000251800082518000825180008251800084C
:1000A000251800082518000825180008251800083C
:1000B0005117000825180008251800082518000801
:1000C000251800082518000825180008251800081C
:1000D000251800082518000825180008251800080C
:1000E0002518000825180008251800080000000041
:1000F0000000000000000000000000000000000000
:0C01000000000000000000005FF808F1A3
:1001100010B5054C237833B9044B13B10448AFF341
:1001200000800123237010BDDC01002000000000CE
:10013000BC96000808B5034B1BB103490348AFF355
:10014000008008BD00000000E0010020BC9600080F
:10015000034613F8012B002AFBD1181A0138704707
:1001600081F0004102E000BF83F0004330B54FEA68
:1001700041044FEA430594EA050F08BF90EA020FD5
:100180001FBF54EA000C55EA020C7FEA645C7FEA68
:10019000655C00F0E2804FEA5454D4EB5555B8BF8B
:1001A0006D420CDD2C4480EA020281EA030382EAFC
:1001B000000083EA010180EA020281EA0303362D8E
:1001C00088BF30BD11F0004F4FEA01314FF4801C61
:1001D0004CEA113102D0404261EB410113F0004F73
:1001E0004FEA03334CEA133302D0524263EB43032A
:1001F00094EA050F00F0A780A4F10104D5F1200EC8
:100200000DDB02FA0EFC22FA05F2801841F1000122
:1002100003FA0EF2801843FA05F359410EE0A5F1F6
:1002200020050EF1200E012A03FA0EFC28BF4CF027
:10023000020C43FA05F3C01851EBE37101F00045DD
:1002400007D54FF0000EDCF1000C7EEB00006EEBEA
:100250000101B1F5801F1BD3B1F5001F0CD3490874
:100260005FEA30004FEA3C0C04F101044FEA4452CB
:1002700012F5800F80F09A80BCF1004F08BF5FEA52
:10028000500C50F1000041EB045141EA050130BD32
:100290005FEA4C0C404141EB010111F4801FA4F1D5
:1002A0000104E9D191F0000F04BF01460020B1FA2A
:1002B00081F308BF2033A3F10B03B3F120020CDA62
:1002C0000C3208DD02F1140CC2F10C0201FA0CF040
:1002D00021FA02F10CE002F11402D8BFC2F1200CA5
:1002E00001FA02F120FA0CFCDCBF41EA0C0190405B
:1002F000E41AA2BF01EB0451294330BD6FEA0404A4
:100300001F3C1CDA0C340EDC04F11404C4F120028E
:1003100020FA04F001FA02F340EA030021FA04F3A0
:1003200045EA030130BDC4F10C04C4F1200220FAF7
:1003300002F001FA04F340EA0300294630BD21FA35
:1003400004F0294630BD94F0000F83F4801306BFFB
:1003500081F480110134013D4EE77FEA645C18BFEF
:100360007FEA655C29D094EA050F08BF90EA020F86
:1003700005D054EA000C04BF1946104630BD91EA7E
:10038000030F1EBF0021002030BD5FEA545C05D181
:100390004000494128BF41F0004130BD14F58004C0
:1003A0003CBF01F5801130BD01F0004545F0FE4134
:1003B00041F470014FF0000030BD7FEA645C1ABF69
:1003C000194610467FEA655C1CBF0B46024650EAA0
:1003D000013406BF52EA033591EA030F41F40021CC
:1003E00030BD00BF90F0000F04BF0021704730B552
:1003F0004FF4806404F132044FF000054FF0000127
:1004000050E700BF90F0000F04BF0021704730B5E7
:100410004FF4806404F1320410F0004548BF4042BC
:100420004FF000013EE700BF42004FEAE2014FEA11
:1004300031014FEA02701FBF12F07F4393F07F4FEC
:1004400081F06051704732F07F4208BF704793F0EF
:100450007F4F04BF41F40021704730B54FF4607402
:1004600001F0004521F000411CE700BF50EA010205
:1004700008BF704730B54FF000050AE050EA0102AE
:1004800008BF704730B511F0004502D5404261EB1E
:1004900041014FF4806404F132045FEA915C3FF45F
:1004A000D8AE4FF003025FEADC0C18BF03325FEAFC
:1004B000DC0C18BF033202EBDC02C2F1200300FAAD
:1004C00003FC20FA02F001FA03FE40EA0E0021FAD2
:1004D00002F11444BDE600BF70B54FF0FF0C4CF4C0
:1004E000E06C1CEA11541DBF1CEA135594EA0C0F72
:1004F00095EA0C0F00F0DEF82C4481EA030621EAAD
:100500004C5123EA4C5350EA013518BF52EA0335E7
:1005100041F4801143F4801338D0A0FB02CE4FF099
:100520000005E1FB02E506F00042E0FB03E54FF0C9
:100530000006E1FB03569CF0000F18BF4EF0010EC1
:10054000A4F1FF04B6F5007F64F5407404D25FEABD
:100550004E0E6D4146EB060642EAC62141EA555170
:100560004FEAC52040EA5E504FEACE2EB4F1FD0CB2
:1005700088BFBCF5E06F1ED8BEF1004F08BF5FEA30
:10058000500E50F1000041EB045170BD06F00046E2
:1005900046EA010140EA020081EA0301B4EB5C048F
:1005A000C2BFD4EB0C0541EA045170BD41F4801187
:1005B0004FF0000E013C00F3AB8014F1360FDEBFAC
:1005C000002001F0004170BDC4F10004203C35DA88
:1005D0000C341BDC04F11404C4F1200500FA05F30B
:1005E00020FA04F001FA05F240EA020001F00042AC
:1005F00021F0004110EBD37021FA04F642EB060122
:100600005EEA430E08BF20EAD37070BDC4F10C044B
:10061000C4F1200500FA04F320FA05F001FA04F20F
:1006200040EA020001F0004110EBD37041F10001FB
:100630005EEA430E08BF20EAD37070BDC4F1200506
:1006400000FA05F24EEA020E20FA04F301FA05F26E
:1006500043EA020321FA04F001F0004121FA04F216
:1006600020EA020000EBD3705EEA430E08BF20EAE6
:10067000D37070BD94F0000F0FD101F00046400020
:1006800041EB010111F4801F08BF013CF7D041EAA2
:10069000060195F0000F18BF704703F000465200A6
:1006A00043EB030313F4801F08BF013DF7D043EA77
:1006B0000603704794EA0C0F0CEA135518BF95EA2D
:1006C0000C0F0CD050EA410618BF52EA4306D1D1B4
:1006D00081EA030101F000414FF0000070BD50EAD3
:1006E000410606BF1046194652EA430619D094EA5D
:1006F0000C0F02D150EA013613D195EA0C0F05D147
:1007000052EA03361CBF104619460AD181EA03019A
:1007100001F0004141F0FE4141F470014FF0000052
:1007200070BD41F0FE4141F4780170BD70B54FF0ED
:10073000FF0C4CF4E06C1CEA11541DBF1CEA13556D
:1007400094EA0C0F95EA0C0F00F0A7F8A4EB05044F
:1007500081EA030E52EA03354FEA013100F0888046
:100760004FEA03334FF0805545EA131343EA12630F
:100770004FEA022245EA111545EA10654FEA0026C4
:100780000EF000419D4208BF964244F1FD0404F57D
:10079000407402D25B084FEA3202B61A65EB0305D9
:1007A0005B084FEA32024FF480104FF4002CB6EB96
:1007B000020E75EB030E22BFB61A754640EA0C0016
:1007C0005B084FEA3202B6EB020E75EB030E22BF56
:1007D000B61A754640EA5C005B084FEA3202B6EB97
:1007E000020E75EB030E22BFB61A754640EA9C0056
:1007F0005B084FEA3202B6EB020E75EB030E22BF26
:10080000B61A754640EADC0055EA060E18D04FEAE3
:10081000051545EA16754FEA06164FEAC30343EA83
:1008200052734FEAC2025FEA1C1CC0D111F4801F50
:100830000BD141EA00014FF000004FF0004CB6E749
:1008400011F4801F04BF01430020B4F1FD0C88BFE8
:10085000BCF5E06F3FF6AFAEB5EB030C04BFB6EBF3
:10086000020C5FEA500C50F1000041EB045170BDE6
:100870000EF0004E4EEA113114EB5C04C2BFD4EB13
:100880000C0541EA045170BD41F480114FF0000E97
:10089000013C90E645EA060E8DE60CEA135594EA13
:1008A0000C0F08BF95EA0C0F3FF43BAF94EA0C0F16
:1008B0000AD150EA01347FF434AF95EA0C0F7FF48B
:1008C00025AF104619462CE795EA0C0F06D152EADF
:1008D00003353FF4FDAE1046194622E750EA4106C3
:1008E00018BF52EA43067FF4C5AE50EA41047FF4D4
:1008F0000DAF52EA43057FF4EBAE12E74FF0FF3C39
:1009000006E000BF4FF0010C02E000BF4FF0010C09
:100910004DF804CD4FEA410C7FEA6C5C4FEA430C82
:1009200018BF7FEA6C5C1BD001B050EA410C0CBFD1
:1009300052EA430C91EA030F02BF90EA020F002033
:10094000704710F1000F91EA030F58BF994208BF9A
:1009500090422CBFD8176FEAE37040F00100704757
:100960004FEA410C7FEA6C5C02D150EA013C07D1AE
:100970004FEA430C7FEA6C5CD6D152EA033CD3D0F9
:100980005DF8040B704700BF8446104662468C46F3
:100990001946634600E000BF01B5FFF7B7FF002826
:1009A00048BF10F1000F01BD4DF808EDFFF7F4FF4F
:1009B0000CBF012000205DF808FB00BF4DF808EDDA
:1009C000FFF7EAFF34BF012000205DF808FB00BFFD
:1009D0004DF808EDFFF7E0FF94BF012000205DF81F
:1009E00008FB00BF4DF808EDFFF7CEFF94BF0120D4
:1009F00000205DF808FB00BF4DF808EDFFF7C4FFCD
:100A000034BF012000205DF808FB00BF4FEA410C15
:100A10007FEA6C5C02D150EA013C0AD14FEA430CF8
:100A20007FEA6C5C02D152EA033C02D14FF0000035
:100A300070474FF0010070474FEA410212F5001273
:100A400015D211D56FF47873B3EB625212D94FEA15
:100A5000C12343F0004343EA505311F0004F23FAFF
:100A600002F018BF404270474FF00000704750EA54
:100A7000013005D111F0004008BF6FF00040704711
:100A80004FF00000704700BF4A0011D212F500126B
:100A900011D20DD56FF47873B3EB62520ED44FEAD6
:100AA000C12343F0004343EA505323FA02F0704756
:100AB0004FF00000704750EA013002D14FF0FF3094
:100AC00070474FF00000704780F0004002E000BF28
:100AD00081F0004142001FBF5FEA410392EA030F29
:100AE0007FEA226C7FEA236C6AD04FEA1262D2EB73
:100AF0001363C1BFD218414048404140B8BF5B4278
:100B0000192B88BF704710F0004F40F4000020F010
:100B10007F4018BF404211F0004F41F4000121F026
:100B20007F4118BF494292EA030F3FD0A2F1010270
:100B300041FA03FC10EB0C00C3F1200301FA03F1AE
:100B400000F0004302D5494260EB4000B0F5000FD1
:100B500013D3B0F1807F06D340084FEA310102F190
:100B60000102FE2A51D2B1F1004F40EBC25008BF42
:100B700020F0010040EA03007047490040EB00000C
:100B800010F4000FA2F10102EDD1B0FA80FCACF13B
:100B9000080CB2EB0C0200FA0CF0AABF00EBC2503A
:100BA00052421843BCBFD0401843704792F0000F28
:100BB00081F4000106BF80F400000132013BB5E77B
:100BC0004FEA41037FEA226C18BF7FEA236C21D0F1
:100BD00092EA030F04D092F0000F08BF0846704756
:100BE00090EA010F1CBF0020704712F07F4F04D124
:100BF000400028BF40F00040704712F100723CBF37
:100C000000F50000704700F0004343F0FE4040F460
:100C1000000070477FEA226216BF08467FEA23631E
:100C20000146420206BF5FEA412390EA010F40F409
:100C3000800070474FF0000304E000BF10F0004355
:100C400048BF40425FEA000C08BF704743F096433C
:100C500001464FF000001CE050EA010208BF704757
:100C60004FF000030AE000BF50EA010208BF7047DE
:100C700011F0004302D5404261EB41015FEA010CF3
:100C800002BF84460146002043F0B64308BFA3F1EB
:100C90008053A3F50003BCFA8CF2083AA3EBC253CD
:100CA00010DB01FA02FC634400FA02FCC2F12002EC
:100CB000BCF1004F20FA02F243EB020008BF20F023
:100CC0000100704702F1200201FA02FCC2F1200289
:100CD00050EA4C0021FA02F243EB020008BF20EA7E
:100CE000DC7070474FF0FF0C1CEAD0521EBF1CEAAC
:100CF000D15392EA0C0F93EA0C0F6FD01A4480EA9A
:100D0000010C400218BF5FEA41211ED04FF0006382
:100D100043EA501043EA5111A0FB01310CF00040AE
:100D2000B1F5000F3EBF490041EAD3715B0040EAD4
:100D3000010062F17F02FD2A1DD8B3F1004F40EBA4
:100D4000C25008BF20F00100704790F0000F0CF077
:100D5000004C08BF49024CEA502040EA51207F3A3B
:100D6000C2BFD2F1FF0340EAC250704740F4000016
:100D70004FF00003013A5DDC12F1190FDCBF00F007
:100D800000407047C2F10002410021FA02F1C2F1B5
:100D9000200200FA02FC5FEA310040F1000053EA51
:100DA0004C0308BF20EADC70704792F0000F00F09F
:100DB000004C02BF400010F4000F013AF9D040EAA5
:100DC0000C0093F0000F01F0004C02BF490011F439
:100DD000000F013BF9D041EA0C018FE70CEAD15337
:100DE00092EA0C0F18BF93EA0C0F0AD030F0004CB7
:100DF00018BF31F0004CD8D180EA010000F000406B
:100E0000704790F0000F17BF90F0004F084691F028
:100E1000000F91F0004F14D092EA0C0F01D1420262
:100E20000FD193EA0C0F03D14B0218BF084608D12B
:100E300080EA010000F0004040F0FE4040F4000075
:100E4000704740F0FE4040F4400070474FF0FF0C08
:100E50001CEAD0521EBF1CEAD15392EA0C0F93EA4F
:100E60000C0F69D0A2EB030280EA010C49024FEAA1
:100E7000402037D04FF0805343EA111143EA10135A
:100E80000CF000408B4238BF5B0042F17D024FF412
:100E9000000C8B4224BF5B1A40EA0C00B3EB510FED
:100EA00024BFA3EB510340EA5C00B3EB910F24BFD6
:100EB000A3EB910340EA9C00B3EBD10F24BFA3EB5B
:100EC000D10340EADC001B0118BF5FEA1C1CE0D123
:100ED000FD2A3FF650AF8B4240EBC25008BF20F0D6
:100EE000010070470CF0004C4CEA50207F32C2BF2A
:100EF000D2F1FF0340EAC250704740F400004FF0C7
:100F00000003013A37E792F0000F00F0004C02BFF7
:100F1000400010F4000F013AF9D040EA0C0093F0C1
:100F2000000F01F0004C02BF490011F4000F013B1B
:100F3000F9D041EA0C0195E70CEAD15392EA0C0F83
:100F400008D142027FF47DAF93EA0C0F7FF470AFBB
:100F5000084676E793EA0C0F04D14B023FF44CAFFE
:100F600008466EE730F0004C18BF31F0004CCAD193
:100F700030F000427FF45CAF31F000437FF43CAFCF
:100F80005FE700BF42000ED2B2F1FE4F0BD34FF02D
:100F90009E03B3EB126209D44FEA002343F00043EF
:100FA00023FA02F070474FF00000704712F1610F12
:100FB00001D1420202D14FF0FF3070474FF00000E4
:100FC000704700BF80B500AF00F02EFC00F052F873
:100FD00000F0CAF900F0AAF900F0A8F800F07CF9D6
:100FE00000F02EF900F0FEF804F028FC1B4804F095
:100FF00052F90346002B04D0184804F03FF904F0DE
:10100000A9FA174804F047F90346002B04D0144806
:1010100004F034F904F05CFB124804F03CF9034698
:10102000002B02D00F4804F029F90F4804F033F9DF
:101030000346002B07D00C4804F020F94FF4005170
:101040000A4801F052FD0A4804F025F90346002B36
:10105000CCD0074804F012F9C8E700BFBC08002054
:101060008C080020A4080020AC08002000100140DB
:10107000B408002080B594B000AF07F128032822FF
:101080000021184606F0D4FA07F1140300221A6072
:101090005A609A60DA601A613B1D00221A605A6039
:1010A0009A60DA600123BB624FF48033FB62002355
:1010B0003B630123BB6302237B644FF48033BB6437
:1010C0004FF4E013FB6407F12803184602F064F9BB
:1010D0000346002B01D000F0BDF90F237B610223F2
:1010E000BB610023FB614FF480633B6200237B62A2
:1010F00007F114030221184602F0CEFB0346002B31
:1011000001D000F0A7F902237B604FF40043FB609D
:101110003B1D184602F05CFD0346002B01D000F099
:1011200099F900BF5037BD4680BD000080B584B03E
:1011300000AF3B1D00221A605A609A60274B284A74
:101140001A60264B4FF480729A60244B00221A7367
:10115000224B00221A75214B4FF46022DA611F4B9B
:1011600000225A601D4B03221A611C4800F0E0FB6C
:101170000346002B01D000F06DF900237B600123B2
:10118000BB600323FB603B1D1946144800F0A2FD21
:101190000346002B01D000F05DF901237B600223A0
:1011A000BB603B1D19460D4800F094FD0346002B23
:1011B00001D000F04FF902237B600323BB603B1D8D
:1011C0001946064800F086FD0346002B01D000F0CA
:1011D00041F900BF1037BD4680BD00BF9007002019
:1011E0000024014080B500AF124B134A1A60114B26
:1011F000124A5A600F4B00229A600E4B0022DA60AE
:101200000C4B4FF480421A610A4B00225A61094B81
:1012100000229A61074B0022DA61064B00221A6213
:10122000044801F07BFC0346002B01D000F012F9CA
:1012300000BF80BDB806002000540040801A0600A0
:1012400080B586B000AF07F1080300221A605A602B
:101250009A60DA603B4600221A605A601D4B4FF0DC
:1012600080421A601B4B47225A601A4B00229A6038
:10127000184B40F2E732DA60164B00221A61154B28
:1012800000229A61134802F015FE0346002B01D09C
:1012900000F0E0F84FF48053BB6007F108031946F3
:1012A0000C4802F0B1FF0346002B01D000F0D2F849
:1012B00000233B6000237B603B461946054803F052
:1012C00077F90346002B01D000F0C4F800BF1837AF
:1012D000BD4680BDC007002080B500AF114B124A4B
:1012E0001A60104B4FF4E1325A600E4B00229A60A4
:1012F0000C4B0022DA600B4B00221A61094B0C22C6
:101300005A61084B00229A61064B0022DA610548B7
:1013100003F0BEF90346002B01D000F09BF800BF9C
:1013200080BD00BF500700200038014080B582B06A
:1013300000AF0C4B5B690B4A43F001035361094B4F
:101340005B6903F001037B607B68002200210B20B6
:1013500001F01DF80B2001F036F800BF0837BD463C
:1013600080BD00BF0010024080B588B000AF07F11B
:10137000100300221A605A609A60DA60314B9B6950
:10138000304A43F0100393612E4B9B6903F0100326
:10139000FB60FB682B4B9B692A4A43F02003936157
:1013A000284B9B6903F02003BB60BB68254B9B69FE
:1013B000244A43F004039361224B9B6903F0040326
:1013C0007B607B681F4B9B691E4A43F00803936157
:1013D0001C4B9B6903F008033B603B6800224FF401
:1013E0000051194801F069FB4FF400533B610123A0
:1013F0007B610023BB610223FB6107F110031946E7
:10140000114801F0E9F94FF400433B6100237B618F
:101410000023BB6107F1100319460C4801F0DCF909
:101420004FF480733B6100237B610023BB6107F1B4
:1014300010031946064801F0CFF900BF2037BD461A
:1014400080BD00BF0010024000100140000C0140B0
:101450000008014080B400AF72B6FEE780B485B0EA
:1014600000AF154B9B69144A43F001039361124B83
:101470009B6903F00103BB60BB680F4BDB690E4A3D
:1014800043F08053D3610C4BDB6903F080537B60E6
:101490007B680A4B5B68FB60FB6823F0E063FB60E2
:1014A000FB6843F00073FB60044AFB68536000BFB5
:1014B0001437BD4680BC7047001002400000014058
:1014C00080B588B000AF786007F1100300221A6081
:1014D0005A609A60DA607B681B68284A934249D157
:1014E000274B9B69264A43F400739361244B9B6905
:1014F00003F40073FB60FB68214B9B69204A43F0B7
:10150000040393611E4B9B6903F00403BB60BB683B
:1015100007233B6103237B6107F110031946194838
:1015200001F05AF9184B194A1A60174B00225A60F9
:10153000154B00229A60144B8022DA60124B4FF454
:1015400080721A61104B4FF480625A610E4B202258
:101550009A610D4B0022DA610B4800F04FFF034601
:10156000002B01D0FFF776FF7B68074A1A62064A14
:101570007B68536200BF2037BD4680BD0024014018
:1015800000100240000801400C0700200800024043
:1015900080B588B000AF786007F1100300221A60B0
:1015A0005A609A60DA607B681B68154A934223D1BF
:1015B000144B9B69134A43F008039361114B9B69D9
:1015C00003F00803FB60FB68C0233B6112237B61CF
:1015D0000323FB6107F1100319460B4801F0FCF8E7
:1015E000084BDB69074A43F40013D361054BDB6901
:1015F00003F40013BB60BB6800BF2037BD4680BD4D
:101600000054004000100240000C014080B584B03E
:1016100000AF78607B681B68B3F1804F13D10C4B2F
:10162000DB690B4A43F00103D361094BDB6903F02B
:101630000103FB60FB68002200211C2000F0A7FED4
:101640001C2000F0C0FE00BF1037BD4680BD00BFAB
:101650000010024080B588B000AF786007F1100339
:1016600000221A605A609A60DA607B681B681C4A24
:10167000934231D11B4B9B691A4A43F480439361D7
:10168000184B9B6903F48043FB60FB68154B9B6917
:10169000144A43F004039361124B9B6903F0040363
:1016A000BB60BB684FF400733B6102237B61032383
:1016B000FB6107F1100319460B4801F08DF84FF458
:1016C00080633B6100237B610023BB6107F1100352
:1016D0001946054801F080F800BF2037BD4680BD9F
:1016E00000380140001002400008014080B400AF03
:1016F000FEE780B400AFFEE780B400AFFEE780B441
:1017000000AFFEE780B400AFFEE780B400AF00BFDB
:10171000BD4680BC704780B400AF00BFBD4680BCF2
:10172000704780B400AF00BFBD4680BC704780B535
:1017300000AF00F0BFF800BF80BD000080B500AF73
:10174000024800F015FF00BF80BD00BF0C0700205D
:1017500080B500AF024802F04FFC00BF80BD00BF63
:10176000C007002080B586B000AF7860144A154BE2
:10177000D31A7B617B693B61134B1B68002B02D141
:10178000114B124A1A60104B1A687B6813443A696D
:101790009A4207D205F022FF02460C2313604FF055
:1017A000FF3309E0084B1B68FB60074B1A687B6836
:1017B0001344054A1360FB6818461837BD4680BDC0
:1017C0000050002000040000F8010020180B002049
:1017D00080B400AF00BFBD4680BC7047002103E06D
:1017E0000B4B5B58435004310A480B4B42189A424A
:1017F000F6D30A4A02E0002342F8043B084B9A421F
:10180000F9D3FFF7E5FF05F0EFFEFFF7DBFB7047CD
:101810009CA1000800000020DC010020DC01002069
:10182000140B0020FEE7000080B500AF084B1B68DA
:10183000074A43F010031360032000F09DFD0020D1
:1018400000F008F8FFF70AFE0023184680BD00BF2D
:101850000020024080B582B000AF7860124B1A6859
:10186000124B1B7819464FF47A73B3FBF1F3B2FBBA
:10187000F3F3184600F0B5FD0346002B01D0012319
:101880000EE07B680F2B0AD8002279684FF0FF30FA
:1018900000F07DFD064A7B681360002300E0012311
:1018A00018460837BD4680BD000000200800002013
:1018B0000400002080B400AF054B1B781A46054B8E
:1018C0001B681344034A136000BFBD4680BC7047C9
:1018D000080000200808002080B400AF024B1B68FD
:1018E0001846BD4680BC70470808002080B584B00B
:1018F00000AF7860FFF7F0FFB8607B68FB60FB68C3
:10190000B3F1FF3F05D0094B1B781A46FB6813441F
:10191000FB6000BFFFF7E0FF0246BB68D31AFA681E
:101920009A42F7D800BF1037BD4680BD080000209E
:1019300080B586B000AF78600023FB7500233B6163
:101940000023BB600023FB607B68002B01D10123D7
:10195000BEE07B689B68002B7B689B6A002B09D1EB
:101960007B680022DA627B68002283F82420786892
:10197000FFF7A6FD786800F0F7FA0346FB757B6871
:101980009B6A03F01003002B40F09980FB7D002B35
:1019900040F095807B689B6A23F4885323F0020310
:1019A00043F002027B689A627B685A687B68DB6955
:1019B0001A437B681B7B5B001343BA681343BB600D
:1019C0007B689B68B3F5807F03D07B689B68012BA5
:1019D00002D14FF4807300E000233A6913433B6166
:1019E0007B681B7D012B19D17B681B7B002B09D1E8
:1019F0007B689B69013B5A033B69134343F40063D3
:101A00003B610BE07B689B6A43F020027B689A6233
:101A10007B68DB6A43F001027B68DA627B681B68E3
:101A20005B6823F469417B681B683A690A435A6022
:101A30007B681B689A68284B13407A681268B968FB
:101A40000B4393607B689B68B3F5807F03D07B6812
:101A50009B68012B04D17B681B69013B1B05FB6064
:101A60007B681B68DB6A23F470017B681B68FA687B
:101A70000A43DA627B681B689A68184B1340BA689D
:101A80009A420BD17B680022DA627B689B6A23F062
:101A9000030343F001027B689A6218E07B689B6A4B
:101AA00023F0120343F010027B689A627B68DB6AC2
:101AB00043F001027B68DA620123FB7507E07B6873
:101AC0009B6A43F010027B689A620123FB75FB7DE1
:101AD00018461837BD4680BDFDF7E1FFFE0E1FFF1B
:101AE00080B586B000AFF860B9607A600023FB75FE
:101AF000FB681B68644A934204D0FB681B68634A16
:101B0000934206D1604B5B6803F47023002B40F0D6
:101B1000B380FB6893F82430012B01D10223AEE09F
:101B2000FB68012283F82420F86800F0CBF9034613
:101B3000FB75FB7D002B40F09A80FB689B6A23F4C9
:101B4000706323F0010343F48072FB689A62FB68C0
:101B50001B684E4A934205D14B4B5B6803F47023DC
:101B6000002B15D1FB689B6A23F48012FB689A62F4
:101B7000FB681B685B6803F48063002B26D0FB685E
:101B80009B6A23F4405343F48052FB689A621DE041
:101B9000FB689B6A43F48012FB689A62FB681B68CF
:101BA000394A934204D0FB681B68384A93420DD1EE
:101BB000354B5B6803F48063002B07D0FB689B6A9E
:101BC00023F4405343F48052FB689A62FB689B6A9B
:101BD00003F48053002B06D0FB68DB6A23F0060277
:101BE000FB68DA6202E0FB680022DA62FB6800222E
:101BF00083F82420FB681B6A254A9A62FB681B6AEB
:101C0000244ADA62FB681B6A234A1A63FB681B6872
:101C10006FF002021A60FB681B689A68FB681B6819
:101C200042F480729A60FB68186AFB681B684C3348
:101C30001946BA687B6800F03BFCFB681B689B6830
:101C400003F46023B3F5602F08D1FB681B689A6822
:101C5000FB681B6842F4A0029A600FE0FB681B68F7
:101C60009A68FB681B6842F480129A6006E0FB6881
:101C7000002283F8242001E00123FB75FB7D184638
:101C80001837BD4680BD00BF002401400028014038
:101C9000DD1F0008592000087520000880B483B0BB
:101CA00000AF786000BF0C37BD4680BC704780B481
:101CB00083B000AF786000BF0C37BD4680BC704772
:101CC00080B483B000AF786000BF0C37BD4680BCE5
:101CD0007047000080B485B000AF786039600023A1
:101CE000FB730023BB607B6893F82430012B01D188
:101CF0000223DCE07B68012283F824203B685B68D8
:101D0000062B1CD87B681B68596B3B685A681346C6
:101D10009B001344053B1F2202FA03F3DB431940E7
:101D20003B6818683B685A6813469B001344053BA0
:101D300000FA03F27B681B680A435A633CE03B6885
:101D40005B680C2B1CD87B681B68196B3B685A6856
:101D500013469B001344233B1F2202FA03F3DB4389
:101D600019403B6818683B685A6813469B00134447
:101D7000233B00FA03F27B681B680A431A631BE0EB
:101D80007B681B68D96A3B685A6813469B001344FA
:101D9000413B1F2202FA03F3DB4319403B681868FA
:101DA0003B685A6813469B001344413B00FA03F218
:101DB0007B681B680A43DA623B681B68092B1CD9E5
:101DC0007B681B68D9683B681A6813465B0013443C
:101DD0001E3B072202FA03F3DB4319403B68986875
:101DE0003B681A6813465B0013441E3B00FA03F27B
:101DF0007B681B680A43DA6019E07B681B68196915
:101E00003B681A6813465B001344072202FA03F387
:101E1000DB4319403B6898683B681A6813465B00CF
:101E2000134400FA03F27B681B680A431A613B689B
:101E30001B68102B03D03B681B68112B32D17B68C9
:101E40001B681D4A934225D17B681B689B6803F47D
:101E50000003002B26D17B681B689A687B681B688F
:101E600042F400029A603B681B68102B1AD1134B96
:101E70001B68134AA2FB03239A0C13469B001344CE
:101E80005B00BB6002E0BB68013BBB60BB68002B32
:101E9000F9D107E07B689B6A43F020027B689A6275
:101EA0000123FB737B68002283F82420FB7B184608
:101EB0001437BD4680BC704700240140000000205C
:101EC00083DE1B4380B584B000AF78600023FB60E5
:101ED0000023BB607B681B689B6803F00103012B38
:101EE00039D07B681B689A687B681B6842F00102E6
:101EF0009A601B4B1B681B4AA2FB03239B0CBB6015
:101F000002E0BB68013BBB60BB68002BF9D1FFF767
:101F1000E3FCF86018E0FFF7DFFC0246FB68D31A29
:101F2000022B11D97B689B6A43F010027B689A628E
:101F30007B68DB6A43F001027B68DA627B6800221F
:101F400083F82420012307E07B681B689B6803F06B
:101F50000103012BDFD1002318461037BD4680BD99
:101F60000000002083DE1B4380B584B000AF7860A2
:101F70000023FB607B681B689B6803F00103012B57
:101F800027D17B681B689A687B681B6822F0010276
:101F90009A60FFF7A1FCF86014E0FFF79DFC024691
:101FA000FB68D31A022B0DD97B689B6A43F01002A1
:101FB0007B689A627B68DB6A43F001027B68DA62C5
:101FC000012307E07B681B689B6803F00103012B7A
:101FD000E3D0002318461037BD4680BD80B584B0DD
:101FE00000AF78607B685B6AFB60FB689B6A03F00C
:101FF0005003002B27D1FB689B6A43F40072FB68F7
:102000009A62FB681B689B6803F46023B3F5602F3A
:1020100015D1FB681B7B002B11D1FB689B6A23F455
:102020008072FB689A62FB689B6A03F48053002B02
:1020300005D1FB689B6A43F00102FB689A62F8686D
:10204000FFF72CFE04E0FB681B6A1B6B786898475F
:1020500000BF1037BD4680BD80B584B000AF78604A
:102060007B685B6AFB60F868FFF721FE00BF1037F2
:10207000BD4680BD80B584B000AF78607B685B6A88
:10208000FB60FB689B6A43F04002FB689A62FB6856
:10209000DB6A43F00402FB68DA62F868FFF710FEBF
:1020A00000BF1037BD4680BD90B587B000AF7860E7
:1020B0000023FB750023FB607B6893F82430012B21
:1020C00001D1022386E07B68012283F8242078680E
:1020D000FFF74AFF0346FB75FB7D002B75D17B683C
:1020E0009B6A23F4885323F0020343F002027B68C7
:1020F0009A623A4B1C68022001F020FE0346B4FBB2
:10210000F3F35B00FB6002E0FB68013BFB60FB68F4
:10211000002BF9D17868FFF7D5FE7B681B689A68B9
:102120007B681B6842F008029A60FFF7D5FB3861B4
:1021300014E0FFF7D1FB02463B69D31A0A2B0DD9F5
:102140007B689B6A23F0120343F010027B689A625B
:102150007B68002283F8242001233BE07B681B6816
:102160009B6803F00803002BE3D17B681B689A6827
:102170007B681B6842F004029A60FFF7ADFB386190
:1021800014E0FFF7A9FB02463B69D31A0A2B0DD9CD
:102190007B689B6A23F0120343F010027B689A620B
:1021A0007B68002283F82420012313E07B681B68EE
:1021B0009B6803F00403002BE3D17B689B6A23F048
:1021C000030343F001027B689A627B68002283F874
:1021D0002420FB7D18461C37BD4690BD0000002022
:1021E00080B485B000AF78607B6803F00703FB60C4
:1021F0000C4BDB68BB60BA684FF6FF031340BB6053
:10220000FB681A02BB68134343F0BF6343F4003317
:10221000BB60044ABB68D36000BF1437BD4680BCB6
:10222000704700BF00ED00E080B400AF044BDB68F6
:102230001B0A03F007031846BD4680BC704700BF69
:1022400000ED00E080B483B000AF0346FB7197F966
:102250000730002B0BDBFB7903F01F02064997F9CF
:1022600007305B09012000FA02F241F8232000BF89
:102270000C37BD4680BC704700E100E080B483B0FD
:1022800000AF03463960FB7197F90730002B0ADB7A
:102290003B68DAB20C4997F907301201D2B20B440D
:1022A00083F800230AE03B68DAB20849FB7903F0BF
:1022B0000F03043B1201D2B20B441A7600BF0C3755
:1022C000BD4680BC704700BF00E100E000ED00E0CB
:1022D00080B489B000AFF860B9607A60FB6803F041
:1022E0000703FB61FB69C3F10703042B28BF042329
:1022F000BB61FB690433062B02D9FB69033B00E099
:1023000000237B614FF0FF32BB6902FA03F3DA432B
:10231000BB681A407B699A404FF0FF317B6901FA34
:1023200003F3D9437B680B40134318462437BD465B
:1023300080BC704780B582B000AF78607B68013B9D
:10234000B3F1807F01D301230FE00A4A7B68013B90
:1023500053600F214FF0FF30FFF790FF054B002235
:102360009A60044B07221A60002318460837BD46BE
:1023700080BD00BF10E000E080B582B000AF7860A3
:102380007868FFF72DFF00BF0837BD4680BD80B5D8
:1023900086B000AF0346B9607A60FB7300237B61AF
:1023A000FFF742FF78617A68B9687869FFF790FFB4
:1023B000024697F90F3011461846FFF75FFF00BF3E
:1023C0001837BD4680BD80B582B000AF0346FB71B3
:1023D00097F907301846FFF735FF00BF0837BD46AD
:1023E00080BD80B582B000AF78607868FFF7A2FF4B
:1023F000034618460837BD4680BD000080B485B04E
:1024000000AF78600023FB607B68002B01D10123C3
:1024100043E07B681B681A46224B1344224AA2FB06
:1024200003231B099A007B681A647B681F4ADA63DE
:102430007B68022283F821207B681B681B68FB6095
:10244000FB6823F47F5323F03003FB607B685A68FA
:102450007B689B681A437B68DB681A437B681B694F
:102460001A437B685B691A437B689B691A437B68E4
:10247000DB691343FA681343FB607B681B68FA68E7
:102480001A607B6800229A637B68012283F821200E
:102490007B68002283F82020002318461437BD46AD
:1024A00080BC7047F8FFFDBFCDCCCCCC0000024013
:1024B00080B586B000AFF860B9607A603B600023F9
:1024C000FB75FB6893F82030012B01D102234AE011
:1024D000FB68012283F82020FB6893F82130012B50
:1024E0003AD1FB68022283F82120FB6800229A631C
:1024F000FB681B681A68FB681B6822F001021A60FF
:102500003B687A68B968F86800F038F9FB68DB6AFC
:10251000002B08D0FB681B681A68FB681B6842F038
:102520000E021A600FE0FB681B681A68FB681B68E4
:1025300022F004021A60FB681B681A68FB681B68BB
:1025400042F00A021A60FB681B681A68FB681B6885
:1025500042F001021A6005E0FB68002283F82020A7
:102560000223FB75FB7D18461837BD4680BD000071
:1025700080B584B000AF78607B68DB6B1B68FB6064
:102580007B681B681B68BB607B681B6C04229A40DD
:10259000FB681340002B4FD0BB6803F00403002BF3
:1025A0004AD07B681B681B6803F02003002B07D10F
:1025B0007B681B681A687B681B6822F004021A603B
:1025C0007B681B68664A934229D07B681B68654A12
:1025D000934222D07B681B68634A93421AD07B687F
:1025E0001B68624A934212D07B681B68604A934220
:1025F0000AD07B681B685F4A934202D14FF4800384
:102600000EE04FF080630BE04FF4802308E04FF4BE
:10261000804305E04FF4806302E0402300E00423A0
:10262000554A53607B68DB6A002B00F094807B681E
:10263000DB6A786898478EE07B681B6C02229A40C0
:10264000FB681340002B56D0BB6803F00203002B3D
:1026500051D07B681B681B6803F02003002B0BD153
:102660007B681B681A687B681B6822F00A021A6084
:102670007B68012283F821207B681B68384A9342DB
:1026800029D07B681B68374A934222D07B681B683D
:10269000354A93421AD07B681B68344A934212D061
:1026A0007B681B68324A93420AD07B681B68314AB8
:1026B000934202D14FF400130EE04FF000730BE091
:1026C0004FF4003308E04FF4005305E04FF400737B
:1026D00002E0202300E00223274A53607B680022A7
:1026E00083F820207B689B6A002B34D07B689B6A30
:1026F000786898472FE07B681B6C08229A40FB683B
:102700001340002B28D0BB6803F00803002B23D014
:102710007B681B681A687B681B6822F00E021A60CF
:102720007B681A6C7B68DB6B012101FA02F25A604C
:102730007B6801229A637B68012283F821207B68F1
:10274000002283F820207B681B6B002B04D07B6861
:102750001B6B7868984700BF00BF1037BD4680BD2F
:10276000080002401C0002403000024044000240C9
:10277000580002406C0002400000024080B485B066
:1027800000AFF860B9607A603B60FB681A6CFB6868
:10279000DB6B012101FA02F25A60FB681B683A68A0
:1027A0005A60FB685B68102B08D1FB681B687A686D
:1027B0009A60FB681B68BA68DA6007E0FB681B6810
:1027C000BA689A60FB681B687A68DA6000BF1437E1
:1027D000BD4680BC7047000080B48BB000AF78600D
:1027E000396000237B6200233B6227E101227B6A80
:1027F00002FA03F3FB613B681B68FA691340BB6193
:10280000BA69FB699A4240F016813B685B68122BFB
:1028100034D0122B0DD8022B2BD0022B04D8002B36
:1028200031D0012B1CD048E0032B43D0112B1BD0FF
:1028300043E0894A934226D0874A934206D8874A82
:10284000934220D0864A93421DD036E0854A934277
:1028500019D0854A934216D0844A934213D02CE073
:102860003B68DB683B6228E03B68DB6804333B6223
:1028700023E03B68DB6808333B621EE03B68DB68B3
:102880000C333B6219E03B689B68002B02D10423A8
:102890003B6212E03B689B68012B05D108233B6239
:1028A0007B68FA691A6108E008233B627B68FA6971
:1028B0005A6102E000233B6200BFBB69FF2B01D8D5
:1028C0007B6801E07B6804337B61BB69FF2B02D826
:1028D0007B6A9B0002E07B6A083B9B003B617B6953
:1028E0001A680F213B6901FA03F3DB431A40396A86
:1028F0003B6901FA03F31A437B691A603B685B6822
:1029000003F08053002B00F09680594B9B69584A86
:1029100043F001039361564B9B6903F00103BB60D5
:10292000BB68544A7B6A9B08023352F82330FB6031
:102930007B6A03F003039B000F2202FA03F3DB43DD
:10294000FA681340FB607B684B4A934213D07B6864
:102950004A4A93420DD07B68494A934207D07B682C
:10296000484A934201D1032306E0042304E00223F2
:1029700002E0012300E000237A6A02F003029200E1
:102980009340FA681343FB603A497B6A9B08023321
:10299000FA6841F823203B685B6803F48033002B1E
:1029A00006D0394B1A683849BB6913430B6006E0FF
:1029B000354B1A68BB69DB43334913400B603B68F6
:1029C0005B6803F40033002B06D02F4B5A682E4966
:1029D000BB6913434B6006E02B4B5A68BB69DB4372
:1029E000294913404B603B685B6803F48013002B5C
:1029F00006D0254B9A682449BB6913438B6006E0D7
:102A0000214B9A68BB69DB431F4913408B603B68CD
:102A10005B6803F40013002B06D01B4BDA681A49DD
:102A2000BB691343CB6006E0174BDA68BB69DB4335
:102A300015491340CB607B6A01337B623B681A689F
:102A40007B6A22FA03F3002B7FF4D0AE00BF2C3751
:102A5000BD4680BC704700BF00002110000011106F
:102A6000000012100000311000003210000022108F
:102A7000001002400000014000080140000C01402D
:102A800000100140001401400004014080B485B0F2
:102A900000AF78600B467B807B689A687B88134028
:102AA000002B02D00123FB7301E00023FB73FB7BAF
:102AB00018461437BD4680BC704780B483B000AF61
:102AC00078600B467B8013467B707B78002B03D0AD
:102AD0007A887B681A6103E07B881A047B681A6134
:102AE00000BF0C37BD4680BC704780B485B000AFD6
:102AF00078600B467B807B68DB68FB607A88FB68CC
:102B000013401A04FB68D9437B880B401A437B6847
:102B10001A6100BF1437BD4680BC704780B584B0D1
:102B200000AF78607B68002B01D101231FE17B6837
:102B300093F83D30DBB2002B06D17B68002283F88E
:102B40003C207868FEF724FD7B68242283F83D2032
:102B50007B681B681A687B681B6822F001021A6098
:102B60007B681B681A687B681B6842F400421A6025
:102B70007B681B681A687B681B6822F400421A6035
:102B800000F0E0FFF8607B685B687B4A934207D8FF
:102B9000FB687A4A934294BF01230023DBB206E02C
:102BA000FB68774A934294BF01230023DBB2002BDA
:102BB00001D00123DBE0FB68724AA2FB03239B0CDC
:102BC000BB607B681B685B6823F03F017B681B6808
:102BD000BA680A435A607B681B681B6A23F03F018E
:102BE0007B685B68644A934202D8BB68013309E0A2
:102BF000BB684FF4967202FB03F3634AA2FB032304
:102C00009B0901337A6812680B4313627B681B6867
:102C1000DB6923F44F4222F0FF027B685B68564970
:102C20008B420DD8FB68591E7B685B685B00B1FB6B
:102C3000F3F30133C3F30B03042B38BF04234FE03A
:102C40007B689B68002B11D1FB68581E7B68596814
:102C50000B465B000B44B0FBF3F30133C3F30B03F0
:102C6000002B0CBF01230023DBB212E0FB68581ECF
:102C70007B6859680B469B000B4499000B44B0FBE2
:102C8000F3F30133C3F30B03002B0CBF0123002329
:102C9000DBB2002B01D0012322E07B689B68002B74
:102CA0000ED1FB68581E7B6859680B465B000B44CD
:102CB000B0FBF3F30133C3F30B0343F400430FE022
:102CC000FB68581E7B6859680B469B000B449900B3
:102CD0000B44B0FBF3F30133C3F30B0343F4404362
:102CE000796809681343CB617B681B681B6823F014
:102CF000C0017B68DA697B681B6A1A437B681B68C2
:102D00000A431A607B681B689B6823F4034323F023
:102D1000FF037A6811697A68D26811437A68126889
:102D20000B4393607B681B68DB6823F0FF017B68C3
:102D30005A697B689B691A437B681B680A43DA609F
:102D40007B681B681A687B681B6842F001021A6086
:102D50007B6800221A647B68202283F83D207B6810
:102D600000221A637B68002283F83E200023184665
:102D70001037BD4680BD00BFA08601007F841E00C5
:102D8000FF083D0083DE1B43D34D621080B588B041
:102D900002AFF8607A601A460B467B8113463B818E
:102DA000FEF79AFD7861FB6893F83D30DBB2202B8B
:102DB00040F0E0807B690093192301227049F86894
:102DC00000F064F90346002B01D00223D3E0FB6836
:102DD00093F83C30012B01D10223CCE0FB680122A7
:102DE00083F83C20FB681B681B6803F00103012B80
:102DF00007D0FB681B681A68FB681B6842F0010279
:102E00001A60FB681B681A68FB681B6822F4006282
:102E10001A60FB68212283F83D20FB68102283F8AA
:102E20003E20FB6800221A64FB687A685A62FB68DD
:102E30003A895A85FB685B8D9AB2FB681A85FB68F4
:102E4000504ADA6279897B693A6AF86800F09CF83E
:102E50000346002B01D001238DE000233B61FB687A
:102E60001B685B693B61FB681B689B693B613B6955
:102E700066E07A69396AF86800F0DEF90346002BEB
:102E80000DD0FB681B6C042B07D1FB681B681A680C
:102E9000FB681B6842F400721A6001236BE0FB6858
:102EA0005B6A1A78FB681B681A61FB685B6A5A1CCC
:102EB000FB685A62FB685B8D9BB2013B9AB2FB6870
:102EC0005A85FB681B8D013B9AB2FB681A85FB682B
:102ED0001B685B6903F00403042B1BD1FB681B8D8B
:102EE000002B17D0FB685B6A1A78FB681B681A61B5
:102EF000FB685B6A5A1CFB685A62FB685B8D9BB27D
:102F0000013B9AB2FB685A85FB681B8D013B9AB264
:102F1000FB681A857A69396AF86800F0CEF90346C9
:102F2000002B0DD0FB681B6C042B07D1FB681B68C2
:102F30001A68FB681B6842F400721A6001231AE0E9
:102F4000FB681B8D002B94D1FB681B681A68FB681B
:102F50001B6842F400721A60FB68202283F83D204F
:102F6000FB68002283F83E20FB68002283F83C20A7
:102F7000002300E0022318461837BD4680BD00BF7D
:102F8000020010000000FFFF80B588B002AFF860BB
:102F90007A603B600B467B81FB68DB6A7B617B6907
:102FA000082B06D07B69012B03D07B6913F5803F8A
:102FB00008D1FB681B681A68FB681B6842F48072C2
:102FC0001A600BE0FB681B6B122B07D1FB681B68B8
:102FD0001A68FB681B6842F480721A603B680093B1
:102FE0007B6800224FF00111F86800F04FF80346AB
:102FF000002B0DD0FB681B681B6803F48073B3F5CE
:10300000807F03D1FB684FF400721A64032335E01C
:10301000FB681B69B3F5804F08D17B89DBB21A4688
:10302000FB681B6802F0FE021A611BE07B89DB1162
:10303000DBB203F00603DBB263F00F03DAB2FB6826
:103040001B681A613B687A680E49F86800F075F8E9
:103050000346002B01D0012310E07B89DAB2FB6824
:103060001B681A613B687A680749F86800F065F8E0
:103070000346002B01D0012300E000231846183737
:10308000BD4680BD080001000200010080B584B08B
:1030900000AFF860B9603B601346FB7125E03B6808
:1030A000B3F1FF3F21D0FEF717FC0246BB69D31AEC
:1030B0003A689A4202D33B68002B16D1FB68002283
:1030C0001A63FB68202283F83D20FB68002283F806
:1030D0003E20FB681B6C43F02002FB681A64FB680F
:1030E000002283F83C20012323E0BB681B0CDBB2E9
:1030F000012B0DD1FB681B685B69DA43BB68134089
:103100009BB2002B0CBF01230023DBB21A460CE05C
:10311000FB681B689B69DA43BB6813409BB2002BBA
:103120000CBF01230023DBB21A46FB799A42B6D0CA
:10313000002318461037BD4680BD80B584B000AF6F
:10314000F860B9607A603B6051E0FB681B685B69BE
:1031500003F48063B3F5806F23D1FB681B681A68A2
:10316000FB681B6842F400721A60FB681B686FF40E
:1031700080625A61FB6800221A63FB68202283F890
:103180003D20FB68002283F83E20FB681B6C43F067
:103190000402FB681A64FB68002283F83C200123C8
:1031A00046E07B68B3F1FF3F21D0FEF795FB024676
:1031B0003B68D31A7A689A4202D37B68002B16D1F7
:1031C000FB6800221A63FB68202283F83D20FB681D
:1031D000002283F83E20FB681B6C43F02002FB6852
:1031E0001A64FB68002283F83C20012320E0BB68BE
:1031F0001B0CDBB2012B0CD1FB681B685B69DA434B
:10320000BB6813409BB2002B14BF01230023DBB229
:103210000BE0FB681B689B69DA43BB6813409BB2F9
:10322000002B14BF01230023DBB2002B8DD1002320
:1032300018461037BD4680BD80B584B000AFF86039
:10324000B9607A602DE0F86800F078F80346002B4A
:1032500001D001232DE0BB68B3F1FF3F21D0FEF781
:103260003BFB02467B68D31ABA689A4202D3BB681A
:10327000002B16D1FB6800221A63FB68202283F81A
:103280003D20FB68002283F83E20FB681B6C43F066
:103290002002FB681A64FB68002283F83C200123AB
:1032A00007E0FB681B685B6903F08003802BCAD1D1
:1032B000002318461037BD4680BD80B584B000AFEE
:1032C000F860B9607A602DE0F86800F037F80346DE
:1032D000002B01D001232DE0BB68B3F1FF3F21D0CB
:1032E000FEF7FAFA02467B68D31ABA689A4202D30A
:1032F000BB68002B16D1FB6800221A63FB682022F2
:1033000083F83D20FB68002283F83E20FB681B6C9D
:1033100043F02002FB681A64FB68002283F83C201B
:10332000012307E0FB681B685B6903F00403042BBF
:10333000CAD1002318461037BD4680BD80B483B083
:1033400000AF78607B681B685B6903F48063B3F54A
:10335000806F1BD17B681B686FF480625A617B6849
:1033600000221A637B68202283F83D207B680022BC
:1033700083F83E207B681B6C43F004027B681A6470
:103380007B68002283F83C20012300E000231846DC
:103390000C37BD4680BC704780B586B000AF786002
:1033A0007B68002B01D101236CE27B681B6803F072
:1033B0000103002B00F08780924B5B6803F00C0345
:1033C000042B0CD08F4B5B6803F00C03082B12D13D
:1033D0008C4B5B6803F48033B3F5803F0BD1894B92
:1033E0001B6803F40033002B6CD07B685B68002BF8
:1033F00068D1012346E27B685B68B3F5803F06D164
:10340000804B1B687F4A43F4803313602EE07B6857
:103410005B68002B0CD17B4B1B687A4A23F480330A
:103420001360784B1B68774A23F4802313601DE0F8
:103430007B685B68B3F5A02F0CD1724B1B68714A97
:1034400043F4802313606F4B1B686E4A43F4803350
:1034500013600BE06B4B1B686A4A23F480331360E4
:10346000684B1B68674A23F4802313607B685B68A2
:10347000002B13D0FEF730FA386108E0FEF72CFA83
:1034800002463B69D31A642B01D90323FAE15D4B51
:103490001B6803F40033002BF0D014E0FEF71CFA95
:1034A000386108E0FEF718FA02463B69D31A642B2C
:1034B00001D90323E6E1534B1B6803F40033002BCF
:1034C000F0D100E000BF7B681B6803F00203002B13
:1034D00063D04C4B5B6803F00C03002B0BD0494BC3
:1034E0005B6803F00C03082B1CD1464B5B6803F4AC
:1034F0008033002B16D1434B1B6803F00203002BD3
:1035000005D07B681B69012B01D00123BAE13D4B3B
:103510001B6823F0F8027B685B69DB0039491343C1
:103520000B603AE07B681B69002B20D0364B0122F0
:103530001A60FEF7D1F9386108E0FEF7CDF90246CE
:103540003B69D31A022B01D903239BE12D4B1B6846
:1035500003F00203002BF0D02A4B1B6823F0F80283
:103560007B685B69DB00274913430B6015E0264B42
:1035700000221A60FEF7B0F9386108E0FEF7ACF9F6
:1035800002463B69D31A022B01D903237AE11D4B72
:103590001B6803F00203002BF0D17B681B6803F06B
:1035A0000803002B3AD07B689B69002B19D0174B7E
:1035B00001221A60FEF790F9386108E0FEF78CF9F5
:1035C00002463B69D31A022B01D903235AE10D4B62
:1035D0005B6A03F00203002BF0D0012000F0DAFA5E
:1035E0001CE00A4B00221A60FEF776F938610FE002
:1035F000FEF772F902463B69D31A022B08D903235E
:1036000040E100BF001002400000424280044242FC
:103610009E4B5B6A03F00203002BE9D17B681B68B9
:1036200003F00403002B00F0A6800023FB75974BEA
:10363000DB6903F08053002B0DD1944BDB69934A77
:1036400043F08053D361914BDB6903F08053BB603F
:10365000BB680123FB758E4B1B6803F48073002B42
:1036600018D18B4B1B688A4A43F480731360FEF7B2
:1036700033F9386108E0FEF72FF902463B69D31AA7
:10368000642B01D90323FDE0814B1B6803F4807395
:10369000002BF0D07B68DB68012B06D17B4B1B6ACB
:1036A0007A4A43F0010313622DE07B68DB68002B4C
:1036B0000CD1764B1B6A754A23F001031362734BDE
:1036C0001B6A724A23F0040313621CE07B68DB6808
:1036D000052B0CD16D4B1B6A6C4A43F0040313623B
:1036E0006A4B1B6A694A43F0010313620BE0674BA4
:1036F0001B6A664A23F001031362644B1B6A634A28
:1037000023F0040313627B68DB68002B15D0FEF7FF
:10371000E3F838610AE0FEF7DFF802463B69D31AA6
:1037200041F28832934201D90323ABE0574B1B6A25
:1037300003F00203002BEED014E0FEF7CDF8386161
:103740000AE0FEF7C9F802463B69D31A41F2883213
:10375000934201D9032395E04C4B1B6A03F002030B
:10376000002BEED1FB7D012B05D1484BDB69474A8D
:1037700023F08053D3617B68DB69002B00F08180EC
:10378000424B5B6803F00C03082B61D07B68DB695C
:10379000022B46D13F4B00221A60FEF79DF838619C
:1037A00008E0FEF799F802463B69D31A022B01D9CB
:1037B000032367E0354B1B6803F00073002BF0D147
:1037C0007B681B6AB3F5803F08D1304B5B6823F4FC
:1037D00000327B689B682D4913434B602B4B5B6821
:1037E00023F474127B68196A7B685B6A0B43274970
:1037F00013434B60274B01221A60FEF76DF83861C6
:1038000008E0FEF769F802463B69D31A022B01D99A
:10381000032337E01D4B1B6803F00073002BF0D02F
:103820002FE01C4B00221A60FEF756F8386108E0C2
:10383000FEF752F802463B69D31A022B01D9032343
:1038400020E0124B1B6803F00073002BF0D118E04E
:103850007B68DB69012B01D1012313E00B4B5B6813
:10386000FB60FB6803F480327B681B6A9A4206D1D6
:10387000FB6803F470127B685B6A9A4201D00123F3
:1038800000E0002318461837BD4680BD00100240F6
:10389000007000406000424280B584B000AF7860A4
:1038A00039607B68002B01D10123D0E06A4B1B6893
:1038B00003F007033A689A4210D9674B1B6823F05C
:1038C000070265493B6813430B60634B1B6803F0B9
:1038D00007033A689A4201D00123B8E07B681B686D
:1038E00003F00203002B20D07B681B6803F0040365
:1038F000002B05D0594B5B68584A43F4E063536092
:103900007B681B6803F00803002B05D0534B5B68F2
:10391000524A43F460535360504B5B6823F0F0020B
:103920007B689B684D4913434B607B681B6803F0C1
:103930000103002B40D07B685B68012B07D1474B0C
:103940001B6803F40033002B15D101237FE07B6853
:103950005B68022B07D1414B1B6803F00073002BFF
:1039600009D1012373E03D4B1B6803F00203002BD8
:1039700001D101236BE0394B5B6823F003027B68C4
:103980005B68364913434B60FDF7A6FFF8600AE019
:10399000FDF7A2FF0246FB68D31A41F28832934238
:1039A00001D9032353E02D4B5B6803F00C027B68C5
:1039B0005B689B009A42EBD1274B1B6803F007031F
:1039C0003A689A4210D2244B1B6823F0070222491E
:1039D0003B6813430B60204B1B6803F007033A68F6
:1039E0009A4201D0012332E07B681B6803F0040394
:1039F000002B08D0194B5B6823F4E0627B68DB681E
:103A0000164913434B607B681B6803F00803002BC7
:103A100009D0124B5B6823F460527B681B69DB00A2
:103A20000E4913434B6000F021F801460B4B5B68D5
:103A30001B0903F00F030A4AD35C21FA03F3094A76
:103A40001360094B1B681846FDF704FF0023184656
:103A50001037BD4680BD00BF00200240001002406C
:103A600044970008000000200400002090B48AB0B1
:103A700000AF2A4B3C1D0FCB84E80F00284B1B885E
:103A80003B800023FB610023BB6100237B6200239A
:103A90007B6100233B62234B5B68FB61FB6903F0A6
:103AA0000C03042B02D0082B03D02DE01E4B3B62ED
:103AB0002DE0FB699B0C03F00F0307F12802134470
:103AC00013F8243C7B61FB6903F48033002B13D093
:103AD000144B5B685B0C03F0010307F128021344ED
:103AE00013F8283CBB617B690F4A02FB03F2BB69F8
:103AF000B2FBF3F37B6204E07B690C4A02FB03F345
:103B00007B627B6A3B6202E0074B3B6200BF3B6A21
:103B100018462837BD4690BC704700BFD8960008AD
:103B2000E89600080010024000127A0000093D00EB
:103B300080B400AF024B1B681846BD4680BC70477E
:103B40000000002080B500AFFFF7F2FF0146054BF3
:103B50005B681B0A03F00703034AD35C21FA03F3F3
:103B6000184680BD001002405497000880B500AF91
:103B7000FFF7DEFF0146054B5B68DB0A03F0070336
:103B8000034AD35C21FA03F3184680BD00100240BB
:103B90005497000880B485B000AF78600A4B1B686A
:103BA0000A4AA2FB03235B0A7A6802FB03F3FB6069
:103BB00000BFFB685A1EFA60002BF9D100BF143712
:103BC000BD4680BC704700BF00000020D34D62108E
:103BD00080B586B000AF786000233B610023FB60B6
:103BE0007B681B6803F00103002B7DD00023FB756D
:103BF0004F4BDB6903F08053002B0DD14C4BDB693D
:103C00004B4A43F08053D361494BDB6903F0805347
:103C1000BB60BB680123FB75464B1B6803F48073D4
:103C2000002B18D1434B1B68424A43F48073136046
:103C3000FDF752FE386108E0FDF74EFE02463B6993
:103C4000D31A642B01D903236DE03A4B1B6803F4AC
:103C50008073002BF0D0364B1B6A03F44073FB607B
:103C6000FB68002B2ED07B685B6803F44073FA6816
:103C70009A4227D02E4B1B6A23F44073FB602E4BD5
:103C800001221A602C4B00221A60294AFB68136239
:103C9000FB6803F00103002B14D0FDF71DFE386113
:103CA0000AE0FDF719FE02463B69D31A41F2883259
:103CB000934201D9032336E01D4B1B6A03F0020334
:103CC000002BEED01A4B1B6A23F440727B685B68B2
:103CD000174913430B62FB7D012B05D1144BDB69A4
:103CE000134A23F08053D3617B681B6803F00203FF
:103CF000002B08D00E4B5B6823F440427B689B6826
:103D00000B4913434B607B681B6803F01003002BC7
:103D100008D0074B5B6823F480027B68DB680449AA
:103D200013434B60002318461837BD4680BD00BFC3
:103D300000100240007000404004424290B58DB037
:103D400000AF7860554B07F10C040FCB84E80F00EF
:103D5000534B1B883B8100237B620023FB620023C3
:103D60003B620023FB610023BB627B68022B7FD098
:103D7000102B02D0012B48D08BE04A4B5B68FB61D3
:103D8000484B1B6803F08073002B7FD0FB699B0CB2
:103D900003F00F0307F13002134413F8243C3B6295
:103DA000FB6903F48033002B18D03E4B5B685B0C3F
:103DB00003F0010307F13002134413F8283C7B623F
:103DC000FB6903F48033002B0DD0374A7B6AB2FBCA
:103DD000F3F23B6A02FB03F3FB6204E03B6A334A03
:103DE00002FB03F3FB622F4B5B6803F48003B3F524
:103DF000800F02D1FB6ABB6248E0FB6A5B002C4A81
:103E0000A2FB03235B08BB6240E0264B1B6AFB61FD
:103E1000FB6903F44073B3F5807F08D1FB6903F0BD
:103E20000203002B03D04FF40043BB621FE0FB6989
:103E300003F44073B3F5007F09D11A4B5B6A03F0BA
:103E40000203002B03D049F64043BB620FE0FB693D
:103E500003F44073B3F5407F1AD1124B1B6803F48F
:103E60000033002B14D04FF22443BB6210E00FE06C
:103E7000FFF77CFE02460B4B5B689B0B03F00303D2
:103E800001335B00B2FBF3F3BB6202E000BF00E072
:103E900000BFBB6A18463437BD4690BDEC9600089B
:103EA000FC9600080010024000127A0000093D0054
:103EB000ABAAAAAA80B582B000AF78607B68002B5D
:103EC00001D1012341E07B6893F83D30DBB2002B48
:103ED00006D17B68002283F83C207868FDF796FBCA
:103EE0007B68022283F83D207B681A687B68043374
:103EF0001946104600F064FA7B68012283F84620D8
:103F00007B68012283F83E207B68012283F83F20F2
:103F10007B68012283F840207B68012283F84120DE
:103F20007B68012283F842207B68012283F84320CA
:103F30007B68012283F844207B68012283F84520B6
:103F40007B68012283F83D20002318460837BD46D0
:103F500080BD000080B485B000AF78607B6893F8C6
:103F60003D30DBB2012B01D001233AE07B68022215
:103F700083F83D207B681B68DA687B681B6842F029
:103F80000102DA607B681B68184A93420ED07B6896
:103F90001B68B3F1804F09D07B681B68144A9342B9
:103FA00004D07B681B68134A934211D17B681B685D
:103FB0009B6803F00703FB60FB68062B10D07B684F
:103FC0001B681A687B681B6842F001021A6007E0F0
:103FD0007B681B681A687B681B6842F001021A60E4
:103FE000002318461437BD4680BC7047002C0140A2
:103FF000000400400008004080B582B000AF786047
:104000007B681B681B6903F00203022B22D17B68CB
:104010001B68DB6803F00203022B1BD17B681B6863
:104020006FF002021A617B6801221A777B681B68B5
:104030009B6903F00303002B03D0786800F0A4F918
:1040400005E0786800F097F9786800F0A6F97B68D9
:1040500000221A777B681B681B6903F00403042B9A
:1040600022D17B681B68DB6803F00403042B1BD19F
:104070007B681B686FF004021A617B6802221A7762
:104080007B681B689B6903F44073002B03D078683E
:1040900000F07AF905E0786800F06DF9786800F0D2
:1040A0007CF97B6800221A777B681B681B6903F028
:1040B0000803082B22D17B681B68DB6803F0080328
:1040C000082B1BD17B681B686FF008021A617B68A4
:1040D00004221A777B681B68DB6903F00303002B5B
:1040E00003D0786800F050F905E0786800F043F9F3
:1040F000786800F052F97B6800221A777B681B68A9
:104100001B6903F01003102B22D17B681B68DB684E
:1041100003F01003102B1BD17B681B686FF010029B
:104120001A617B6808221A777B681B68DB6903F4D5
:104130004073002B03D0786800F026F905E078681A
:1041400000F019F9786800F028F97B6800221A77E6
:104150007B681B681B6903F00103012B0ED17B6890
:104160001B68DB6803F00103012B07D17B681B6828
:104170006FF001021A61786801F084FB7B681B68AC
:104180001B6903F08003802B0ED17B681B68DB6802
:1041900003F08003802B07D17B681B686FF08002DF
:1041A0001A61786800F06BFA7B681B681B6903F082
:1041B0004003402B0ED17B681B68DB6803F0400393
:1041C000402B07D17B681B686FF040021A6178684A
:1041D00000F0ECF87B681B681B6903F02003202BC0
:1041E0000ED17B681B68DB6803F02003202B07D10E
:1041F0007B681B686FF020021A61786800F036FA5D
:1042000000BF0837BD4680BD80B584B000AF786080
:1042100039607B6893F83C30012B01D10223A6E082
:104220007B68012283F83C207B68022283F83D20D2
:104230007B681B689B68FB60FB6823F07703FB606F
:10424000FB6823F47F43FB607B681B68FA689A6015
:104250003B681B68402B67D0402B0BD8102B73D0CA
:10426000102B02D8002B6FD078E0202B6CD0302B95
:104270006AD073E0702B0DD0702B04D8502B33D044
:10428000602B41D06AE0B3F5805F66D0B3F5005F84
:1042900017D063E07B6818683B6899683B685A6888
:1042A0003B68DB6800F065F97B681B689B68FB6016
:1042B000FB6843F07703FB607B681B68FA689A60D1
:1042C0004CE07B6818683B6899683B685A683B68B3
:1042D000DB6800F04EF97B681B689A687B681B6896
:1042E00042F480429A6039E07B6818683B685968FC
:1042F0003B68DB681A4600F0C5F87B681B685021F4
:10430000184600F01CF929E07B6818683B6859687A
:104310003B68DB681A4600F0E3F87B681B686021A5
:10432000184600F00CF919E07B6818683B6859687A
:104330003B68DB681A4600F0A5F87B681B684021E3
:10434000184600F0FCF809E07B681A683B681B68B7
:104350001946104600F0F3F800E000BF7B68012228
:1043600083F83D207B68002283F83C200023184618
:104370001037BD4680BD80B483B000AF786000BF09
:104380000C37BD4680BC704780B483B000AF786006
:1043900000BF0C37BD4680BC704780B483B000AF0F
:1043A000786000BF0C37BD4680BC704780B483B0D6
:1043B00000AF786000BF0C37BD4680BC704700007E
:1043C00080B485B000AF786039607B681B68FB60A3
:1043D0007B68294A93420BD07B68B3F1804F07D0AA
:1043E0007B68264A934203D07B68254A934208D1D2
:1043F000FB6823F07003FB603B685B68FA6813435B
:10440000FB607B681C4A93420BD07B68B3F1804F02
:1044100007D07B68194A934203D07B68184A9342BD
:1044200008D1FB6823F44073FB603B68DB68FA68E3
:104430001343FB60FB6823F080023B685B69134316
:10444000FB607B68FA681A603B689A687B68DA628E
:104450003B681A687B689A627B68074A934203D17B
:104460003B681A697B681A637B6801225A6100BF46
:104470001437BD4680BC7047002C0140000400404A
:104480000008004080B487B000AFF860B9607A607F
:10449000FB681B6A7B61FB681B6A23F00102FB68F7
:1044A0001A62FB689B693B613B6923F0F0033B6147
:1044B0007B681B013A6913433B617B6923F00A0364
:1044C0007B617A69BB6813437B61FB683A699A61D7
:1044D000FB687A691A6200BF1C37BD4680BC704712
:1044E00080B487B000AFF860B9607A60FB681B6A7F
:1044F00023F01002FB681A62FB689B697B61FB6812
:104500001B6A3B617B6923F470437B617B681B03FF
:104510007A6913437B613B6923F0A0033B61BB686D
:104520001B013A6913433B61FB687A699A61FB6836
:104530003A691A6200BF1C37BD4680BC704780B420
:1045400085B000AF786039607B689B68FB60FB6872
:1045500023F07003FB603A68FB68134343F00703E2
:10456000FB607B68FA689A6000BF1437BD4680BC68
:10457000704780B487B000AFF860B9607A603B6084
:10458000FB689B687B617B6923F47F437B613B68AD
:104590001A027B681A43BB6813437A6913437B6131
:1045A000FB687A699A6000BF1C37BD4680BC7047C3
:1045B00080B485B000AF786039607B6893F83C3098
:1045C000012B01D1022346E07B68012283F83C20C5
:1045D0007B68022283F83D207B681B685B68FB6078
:1045E0007B681B689B68BB60FB6823F07003FB6003
:1045F0003B681B68FA681343FB607B681B68FA68BA
:104600005A607B681B68164A93420ED07B681B6811
:10461000B3F1804F09D07B681B68124A934204D0E3
:104620007B681B68104A93420CD1BB6823F080035F
:10463000BB603B685B68BA681343BB607B681B6800
:10464000BA689A607B68012283F83D207B6800226B
:1046500083F83C20002318461437BD4680BC7047C1
:10466000002C0140000400400008004080B483B0EA
:1046700000AF786000BF0C37BD4680BC704780B487
:1046800083B000AF786000BF0C37BD4680BC704778
:1046900080B582B000AF78607B68002B01D1012328
:1046A0003FE07B6893F83930DBB2002B06D17B68A2
:1046B000002283F838207868FCF7CCFF7B6824223E
:1046C00083F839207B681B68DA687B681B6822F4F2
:1046D0000052DA60786800F059F97B681B681A6943
:1046E0007B681B6822F490421A617B681B685A69D8
:1046F0007B681B6822F02A025A617B681B68DA68B3
:104700007B681B6842F40052DA607B680022DA633F
:104710007B68202283F839207B68202283F83A20A6
:10472000002318460837BD4680BD80B58AB002AF69
:10473000F860B9603B601346FB8000237B61FB6837
:1047400093F83930DBB2202B7CD1BB68002B02D030
:10475000FB88002B01D1012375E0FB6893F838300A
:10476000012B01D102236EE0FB68012283F838207F
:10477000FB680022DA63FB68212283F83920FDF709
:10478000ABF87861FB68FA889A84FB68FA88DA8467
:10479000FB689B68B3F5805F08D1FB681B69002B41
:1047A00004D10023FB61BB68BB6103E0BB68FB6114
:1047B0000023BB61FB68002283F838202AE03B68B5
:1047C00000937B6900228021F86800F094F803468A
:1047D000002B01D0032336E0FB69002B0BD1BB6912
:1047E0001B881A46FB681B68C2F308025A60BB6943
:1047F0000233BB6107E0FB691A78FB681B685A60EB
:10480000FB690133FB61FB68DB8C9BB2013B9AB215
:10481000FB68DA84FB68DB8C9BB2002BCFD13B6852
:1048200000937B6900224021F86800F064F8034699
:10483000002B01D0032306E0FB68202283F83920F7
:10484000002300E0022318462037BD4680BD80B417
:1048500085B000AFF860B9601346FB80FB6893F841
:104860003A30DBB2202B40D1BB68002B02D0FB8852
:10487000002B01D1012339E0FB6893F83830012B7C
:1048800001D1022332E0FB68012283F83820FB6863
:10489000BA689A62FB68FA889A85FB68FA88DA85B2
:1048A000FB680022DA63FB68222283F83A20FB6867
:1048B000002283F83820FB681B68DA68FB681B68F5
:1048C00042F48072DA60FB681B685A69FB681B68F7
:1048D00042F001025A61FB681B68DA68FB681B68DA
:1048E00042F02002DA60002300E002231846143769
:1048F000BD4680BC704780B584B000AFF860B96039
:104900003B601346FB712CE0BB69B3F1FF3F28D03D
:10491000BB69002B07D0FCF7DFFF02463B68D31AC8
:10492000BA699A421DD2FB681B68DA68FB681B688B
:1049300022F4D072DA60FB681B685A69FB681B6856
:1049400022F001025A61FB68202283F83920FB68BB
:10495000202283F83A20FB68002283F838200323C2
:104960000FE0FB681B681A68BB681340BA689A427C
:104970000CBF01230023DBB21A46FB799A42C3D055
:10498000002318461037BD4680BD000080B584B0B6
:1049900000AF78607B681B681B6923F440517B681B
:1049A000DA687B681B680A431A617B689A687B68CF
:1049B0001B691A437B685B691343BB607B681B6898
:1049C000DB6823F4B05323F00C037A681268B968EB
:1049D0000B43D3607B681B685B6923F440717B6881
:1049E0009A697B681B680A435A617B681B682C4A7A
:1049F000934203D1FFF7BAF8F86002E0FFF7A2F89C
:104A0000F860FA6813469B0013449A001A447B68C6
:104A10005B689B00B2FBF3F3224AA2FB03235B0912
:104A20001901FA6813469B0013449A001A447B68E4
:104A30005B689B00B2FBF3F21A4BA3FB02035B091A
:104A4000642000FB03F3D31A1B013233154AA2FB87
:104A500003235B0903F0F0031944FA6813469B0033
:104A600013449A001A447B685B689B00B2FBF3F224
:104A70000C4BA3FB02035B09642000FB03F3D31A76
:104A80001B013233074AA2FB03235B0903F00F0229
:104A90007B681B680A449A6000BF1037BD4680BD22
:104AA000003801401F85EB5180B582B000AF03464E
:104AB000FB71FB79002B02D0012B07D00DE04FF4E6
:104AC00080710848FDF7E2FF034607E04FF400411C
:104AD0000548FDF7DBFF034600E0002318460837D2
:104AE000BD4680BD00080140000C014080B400AF0D
:104AF0003A4B00221A7068E0384B1B781946384A46
:104B00000B46DB005B1A5B00134401331B78012B5F
:104B100016D1324B1B781A4631491346DB009B1ADB
:104B20005B000B440A331B88013398B22C491346AF
:104B3000DB009B1A5B000B440A3302461A803EE0FE
:104B4000264B1B781946264A0B46DB005B1A5B0096
:104B5000134401331B78022B31D1204B1B781A46AA
:104B60001F491346DB009B1A5B000B440C331B8868
:104B7000013398B21A491346DB009B1A5B000B44C1
:104B80000C3302461A80154B1B781946144A0B4603
:104B9000DB005B1A5B0013440C331B884FF6E852B2
:104BA00093420CD90D4B1B7819460D4A0B46DB007E
:104BB0005B1A5B0013440C334FF6E8521A80074B24
:104BC0001B780133DAB2054B1A70044B1B78012BAA
:104BD00092D900BFBD4680BC704700BFFC010020D9
:104BE0000C08002080B400AF624B00221A70B7E0BE
:104BF000604B1B781946604A0B46DB005B1A5B0072
:104C000013441B78002B40F0A5805A4B1B781946A3
:104C1000594A0B46DB005B1A5B00134408331B88C0
:104C2000002B18D0534B1B781946534A0B46DB0018
:104C30005B1A5B00134408331B88B3F5FA7F0AD272
:104C40004C4B1B7819464C4A0B46DB005B1A5B0049
:104C5000134401221A70474B1B781946464A0B46EB
:104C6000DB005B1A5B00134406331B88002B17D054
:104C7000404B1B781946404A0B46DB005B1A5B0031
:104C8000134406331B88772B0AD83A4B1B781946F6
:104C9000394A0B46DB005B1A5B00134404221A708E
:104CA000344B1B781946344A0B46DB005B1A5B0019
:104CB000134406331B88002B24D02E4B1B78194637
:104CC0002D4A0B46DB005B1A5B00134404331B8840
:104CD000772B17D8274B1B781946274A0B46DB0042
:104CE0005B1A5B00134406331B88772B0AD8214BD1
:104CF0001B781946204A0B46DB005B1A5B00134405
:104D000005221A701B4B1B7819461B4A0B46DB0009
:104D10005B1A5B00134408331B88B3F5167F19D95F
:104D2000144B1B781946144A0B46DB005B1A5B00D8
:104D3000134408331B8840F2DB5293420AD80D4BD0
:104D40001B7819460C4A0B46DB005B1A5B001344C8
:104D500002221A70074B1B780133DAB2054B1A7026
:104D6000044B1B78012B7FF643AF00BFBD4680BCD0
:104D7000704700BFFD0100200C08002080B500AF87
:104D8000914B00221A7018E18F4B1B7819468F4AFD
:104D90000B46DB005B1A5B0013440A331B8840F2AE
:104DA000DC5293420AD9884B1B781946874A0B4636
:104DB000DB005B1A5B00134403221A70824B1B78E2
:104DC0001946824A0B46DB005B1A5B0013440C3326
:104DD0001B88782B25D1FFF705FF7B4B1B781946E5
:104DE0007A4A0B46DB005B1A5B001344083300224F
:104DF0001A80754B1B781946744A0B46DB005B1A08
:104E00005B001344043300221A806F4B1B78194651
:104E10006E4A0B46DB005B1A5B001344063300222C
:104E20001A80694B1B781946684A0B46DB005B1AEF
:104E30005B00134402331B78634A127811465B000F
:104E4000D8B2624A0B46DB005B1A5B0013440233A4
:104E500002461A705C4B1B781846FFF725FE034686
:104E6000012B15D1584B1B781A4658491346DB00C5
:104E70009B1A5B000B4402331B780133D8B25349B1
:104E80001346DB009B1A5B000B44023302461A7088
:104E90004D4B1B7819464D4A0B46DB005B1A5B00F5
:104EA000134402331B78F02B45D1474B1B7819462E
:104EB000464A0B46DB005B1A5B00134401330122B8
:104EC0001A70414B1B7818463F4B1B7819463F4AD6
:104ED0000346DB001B1A5B001344063318883B4A69
:104EE0000B46DB005B1A5B001344043302461A8056
:104EF000354B1B781846344B1B781946334A03460A
:104F0000DB001B1A5B0013440C3318882F4A0B4636
:104F1000DB005B1A5B001344063302461A802A4BFF
:104F20001B781946294A0B46DB005B1A5B001344C9
:104F30000C3300221A80244B1B781946234A0B4657
:104F4000DB005B1A5B00134402331B780F2B2ED15E
:104F50001D4B1B7819461D4A0B46DB005B1A5B0094
:104F60001344013302221A70174B1B781846164B54
:104F70001B781946154A0346DB001B1A5B001344D5
:104F80000A331888114A0B46DB005B1A5B00134496
:104F9000083302461A800C4B1B7819460B4A0B4605
:104FA000DB005B1A5B0013440A3300221A80064BB5
:104FB0001B780133DAB2044B1A70034B1B78012BB8
:104FC0007FF6E2AE00BF80BDFE0100200C0800208D
:104FD00080B500AFFFF7D2FEFFF788FD00BF80BDB0
:104FE00080B485B000AF0346FB8008E00023FB815E
:104FF00002E0FB890133FB81FB893B2BF9D9FB885C
:105000005A1EFA80002BF1D100BF1437BD4680BC78
:105010007047000080B582B000AF786000224FF486
:1050200000511148FDF749FD7868FBF7ABFF0346D7
:105030009BB21846FFF7D4FF01224FF400510A48F3
:10504000FDF73BFD79680948FBF742FD034618462A
:10505000FBF798FF03469BB21846FFF7C1FF00BF5E
:105060000837BD4680BD00BF0010014000007A44F3
:1050700080B586B000AF03460A46FB711346BB807D
:105080004FF000037B61BB881846FBF7D3FD034656
:1050900019461A48FBF7DAFE0346FB6024E00023BA
:1050A0007B820BE0F9687869FBF714FD03467B61AE
:1050B0007869FFF7AFFF7B8A01337B827A8ABB88EE
:1050C0009A42EFD3BB887B820BE0F9687869FBF7E3
:1050D000FFFC03467B617869FFF79CFF7B8A013BFD
:1050E0007B827B8A002BF0D1FB795A1EFA71002B50
:1050F000D5D100BF1837BD4680BD00BF00007A443F
:1051000080B500AF184B1B78002B2AD0164B9B782C
:105110000133DAB2144B9A70134B9B78042B20D9CD
:10512000114B00221A70104B5B7819460F4A162358
:1051300003FB01F31344143301221A700A4B5A780B
:105140000B4B1A70084B5B780133DAB2064B5A707E
:1051500000F010F8044B5B78012B02D9024B0022BF
:105160005A7000BF80BD00BF880800205C08002086
:105170008B08002080B500AF174B1B781946174AE3
:10518000162303FB01F3134414331B78002B21D0A7
:10519000114B1B781A46162303FB02F30F4A99188A
:1051A0000D4B1B7818460D4A162303FB00F31344DE
:1051B00015331B789AB20A230948FFF7B6FA064B53
:1051C0001B781946054A162303FB01F313441433D5
:1051D00000221A7000BF80BD8B0800205C080020F0
:1051E0005007002080B584B000AF7860396000239C
:1051F000FB7305E03B6801333B60FB7B0133FB73D2
:105200003B681B78002BF5D1FB7B5B423A68D118D9
:10521000FB7B9AB20A237868FFF787FA00BF103742
:10522000BD4680BD80B400AF0D4B01225A600D4BCE
:1052300005225A600C4B32225A600C4B64225A6091
:105240000B4BC8225A600B4B4FF4FA725A600A4B50
:105250004FF47A725A6000BFBD4680BC704700BFF1
:10526000BC0800208C080020A4080020AC08002006
:105270009C08002094080020B408002080B582B06B
:1052800000AF7860FCF728FB02467B681A6000BF1D
:105290000837BD4680BD80B582B000AF7860FCF7AE
:1052A0001BFB02467B681B68D21A7B685B689A42CC
:1052B0002CBF01230023DBB218460837BD4680BD52
:1052C00080B588B002AFF8607B600B46FB72134676
:1052D000BB72FB7A143B0C2B47D801A252F823F087
:1052E0006F5300086B5300086B53000815530008F8
:1052F000455300084D5300086B5300086B530008DA
:105300006B5300086B5300086B5300086B53000885
:105310006F5300087B687B6110E0184B1B785A1CA8
:10532000D1B2164A11701A467B691978144B9954F8
:105330007B6901337B61BB7A013BBB72BB7A002B7B
:10534000EBD115E00D4B00221A7011E0FB6893F8C9
:10535000243099B2094B1B789AB20A230093134662
:10536000074A0848FDF712FD02E0002301E000BFF4
:10537000012318461837BD4680BD00BF80020020BB
:1053800084020020B806002080B485B000AFF86029
:105390007B600B46FB721346BB72FB7A283B2B2BC0
:1053A0006ED801A252F823F08B5400088B540008E9
:1053B0008B5400088B5400088B5400088B54000851
:1053C0008154000881540008815400088154000869
:1053D0008154000881540008815400088154000859
:1053E0008154000881540008815400088154000849
:1053F0008154000881540008815400088154000839
:105400008154000881540008815400088154000828
:105410008154000881540008815400088154000818
:105420008154000881540008815400088154000808
:1054300081540008815400088154000881540008F8
:10544000815400088154000859540008635400082E
:105450006D54000877540008FB68002283F8282068
:1054600014E0FB68002283F828200FE0FB6800228C
:1054700083F828200AE0FB68002283F8282005E052
:10548000FB68012283F8282000E000BF01231846B2
:105490001437BD4680BC704780B582B002AF1A4B4E
:1054A0001A4A1B491B4800F00DFB1A4801F0F5FF92
:1054B0000021184802F000F8164800F02BFA1548B1
:1054C00000F09BFA40230093802300220021114822
:1054D00001F034FA402300930023002280210D487C
:1054E00001F02CFA0C490B4801F076F8094800F05D
:1054F00084FA0021074801F0DFFF4FF4FA70FCF74F
:10550000F5F900BFBD4680BD89530008C1520008AF
:10551000589E0008C40800205C97000880B483B03F
:1055200000AF78607A680A4BA3FB0213D21A5208C4
:105530001344DB0A6C2202FB03F37B607B68DBB263
:10554000C3F13F03DBB218460C37BD4680BC704741
:105550000101100090B587B002AF314B9B6818462F
:10556000FAF762FF03460C4638461A4623462D4991
:1055700002F0B6FC3B46002240212B4800F08EFF93
:105580002A4B1B8818462A4B1B785A1CD1B2284A32
:1055900011701C46FFF7C2FF03461A46254B1A55E9
:1055A000234B1B78802B37D1214B00221A7000210E
:1055B0001D4801F04FF93023009380231022002171
:1055C000194800F070F90121174801F043F901234F
:1055D000FB7313E0FB7B013BD9B2FB7B013B154A1C
:1055E000D05CFB7B134AD35CFA7B009313460246E4
:1055F0000D4801F0A3F9FB7B0133FB73FB7B802B90
:10560000E8D1094800F0F9F906230093102302229B
:105610000021054800F0FFF900BF1437BD4690BDDA
:105620005009002018970008C4080020F20A002042
:10563000A40200200002002080B487B000AF786090
:10564000396000237B6138E001233B612EE03B6938
:105650005B007A6813441A883B6903F10043013BFD
:105660005B0079680B441B889A421CD23B695B0043
:105670007A6813441B88FB603B6903F10043013BDC
:105680005B007A681A443B695B0079680B441288B6
:105690001A803B6903F10043013B5B007A681344C5
:1056A000FA6892B21A803B6901333B613A693B6800
:1056B0009A42CCDB7B6901337B613B68013B7A69B1
:1056C0009A42C1DB00BF1C37BD4680BC704700005A
:1056D00090B583B000AF03224F495048FCF700FA61
:1056E0004F4B1B684C4A11884E4A22F813104C4B02
:1056F0001B68494A51884C4A22F81310484B1B68D2
:10570000454A9188494A22F81310454B1B680133DA
:10571000434A1360424B1B68312B6EDD404B002225
:105720001A6032213F48FFF787FF32213E48FFF7DA
:1057300083FF32213D48FFF77FFF3A4B5B8E1846CF
:10574000FBF778FA03461846FAF76EFE2EA3D3E964
:105750000023FAF7C1FE03460C4618462146FBF724
:1057600093F903469AB2324B1A802F4B5B8E184640
:10577000FBF760FA03461846FAF756FE22A3D3E970
:105780000023FAF7A9FE03460C4618462146FBF70C
:105790007BF903469AB2274B1A80244B5B8E18463E
:1057A000FBF748FA03461846FAF73EFE18A3D3E97A
:1057B0000023FAF791FE03460C4618462146FBF7F4
:1057C00063F903469AB21C4B1A8000237B6011E0F8
:1057D000144A7B68002122F81310134A7B680021C9
:1057E00022F81310114A7B68002122F813107B68FD
:1057F00001337B607B68312BEADD00BF0C37BD468F
:1058000090BD00BFAFF300809D11A5BDC117F03F53
:1058100052B81E85EB51F03FFC0A00209007002093
:10582000A8020020280A00208C0A0020C4090020B9
:10583000F00A0020F40A0020F20A002080B500AF30
:105840000B48FEF787FB01220A490B48FEF7FFFFD2
:105850000A490948FFF7C6FC0948FCF725FC1E2148
:105860000320FFF705FCFFF717FE00BF80BD00BF58
:10587000C0070020280800205007002038970008A3
:105880009007002080B582B000AF78607B681B680D
:10589000B3F1804F03D1FFF733FCFFF799FB00BF53
:1058A0000837BD4680BD80B584B002AF7860084639
:1058B00011461A460346FB700B46BB7013467B70BD
:1058C000FA787B781344D8B2BA783B7C1344DBB2C5
:1058D000BA78F97800930346786801F004F8034633
:1058E000002B13D00EE07878BA78F9780023009373
:1058F0000346786800F0F8FEBB780133BB703B7C50
:10590000013B3B743B7C002BEDD100E000BF08372E
:10591000BD4680BD80B584B000AF78607B681B68F1
:105920001B7CFB607B6893F83C301A46FB6802FBEB
:1059300003F3FB60FB68DB00FB607B689B6BFA6832
:105940000021184601F074FE00BF1037BD4680BD2F
:1059500080B586B002AF78600B46FB701346BB7013
:105960007B681B681B7CFB73FB78BB817B689B6B34
:10597000BB60FB7B9BB2BA8902FB03F3BB81BB8993
:10598000DB00BB81BB89BA681344BB60F97BBA7882
:10599000BB6800930B460021786801F04DFD00BF05
:1059A0001037BD4680BD80B584B000AF786000235D
:1059B000FB737B6893F83C307B737B6893F83D30D6
:1059C000BB737B681B685B7C3B73BA7BFB7B1946B4
:1059D0007868FFF7BDFFFB7B0133FB73BB7B0133B3
:1059E000BB73FA7B7B7B9A4203D2BA7B3B7B9A42A6
:1059F000EBD300BF1037BD4680BD80B582B000AF8D
:105A000078607868FFF7CFFF786801F066FD00BF27
:105A10000837BD4680BD80B586B002AF78600846C5
:105A200011461A460346FB700B46BB7013467B704B
:105A30007B6893F83C207B681B685B7C9A422CD186
:105A40007B6893F83E307B817B689B6BFB60FB78C7
:105A5000DB001A46FB681344FB607B89BA7802FBC3
:105A600003F31A46FB681344FB6012E07878BA78B7
:105A7000F978FB6800930346786801F0DDFC7B89C8
:105A8000FA681344FB60BB780133BB703B7E013B7B
:105A90003B763B7E002BE9D100E000BF1037BD46CE
:105AA00080BD000080B483B000AF78607B680822BE
:105AB0001A70034B18460C37BD4680BC704700BFB8
:105AC000AC02002080B588B002AFF860B9607A609F
:105AD0003B603B6800937B680B4A0C49F86801F017
